S00B00004C43442E7372656346
S113000045C0000058C0000056C0000054C00000A5
S113001052C0000050C000004EC000004CC00000A0
S11300204AC0000048C0000046C0000044C00000B0
S113003042C0000040C000003EC000003CC00000C0
S11300403AC0000038C0000036C0000034C00000D0
S113005032C0000030C000002EC000002CC00000E0
S11300602AC0000028C0000026C0000024C00000F0
S113007022C0000020C000001EC000001CC0000000
S11300801AC0000018C0000016C0000011241FBED2
S1130090CFEFD0E1DEBFCDBF11E0A0E0B1E0E6E9F3
S11300A0F1E000E00BBF02C007900D92A031B10750
S11300B0D9F761D06EC0A4CF88BBE5E6F0E08081BB
S11300C08E7F808380818D7F808380818460808324
S11300D085E08A95F1F7000080818B7F80838FE330
S11300E09FE10197F1F700C00000089588BBE5E6A1
S11300F0F0E080818160808380818D7F8083808136
S11301008460808385E08A95F1F7000080818B7F8D
S113011080838FE39FE10197F1F700C00000089509
S11301208FEF87BBE4E6F0E08081876080832FEF68
S113013089EF90E0215080409040E1F700C000003A
S113014088E3BADF8CE0B8DF81E0B6DF86E0B4CFC5
S113015008958111605C862F8068AECF0895CF9397
S1130160DF93EC0102C02196C1DF88818111FBCFAE
S1130170DF91CF910895D4DF60E080E0EADF80E092
S113018091E0EDDF60E081E0E4DF86E091E0E7DF2D
S1090190FFCFF894FFCF3D
S113019648656C6C6F004C4344205465737432009C
S9030000FC
