S00E0000464E44322D332E73726563AC
S113000045C0000058C0000056C0000054C00000A5
S113001052C0000050C000004EC000004CC00000A0
S11300204AC0000048C0000046C0000044C00000B0
S113003042C0000040C000003EC000003CC00000C0
S11300403AC0000038C0000036C0000034C00000D0
S113005032C0000030C000002EC000002CC00000E0
S11300602AC0000028C0000026C0000024C00000F0
S113007022C0000020C000001EC000001CC0000000
S11300801AC0000018C0000016C0000011241FBED2
S1130090CFEFD0E1DEBFCDBF11E0A0E0B1E0E0EAF8
S11300A0F2E000E00BBF02C007900D92A431B1074B
S11300B0D9F7BED0F3C0A4CFCF93DF9300D000D044
S11300C0CDB7DEB7AC019C01ADECBCECD8D09695B5
S11300D0879596958795969587959C01220F331F52
S11300E0880F991F880F991F880F991F820F931FDC
S11300F09A01281B390B29839A01C1D0FC01F6957A
S1130100E795F695E795F695E7959F01B8D096950E
S1130110879596958795969587959C01220F331F11
S1130120880F991F880F991F880F991F820F931F9B
S11301309F01281B390B2A839A01369527953695FA
S11301402795ABE7B4E19BD0FC01F695E7959F01B9
S1130150ADECBCEC94D0969587959695879596953D
S113016087959C01220F331F880F991F880F991FB1
S1130170880F991F820F931F9F01281B390B2B8314
S11301809A01369527953695279536952795A5ECAA
S1130190B0E275D0AC01529542954F7045275F701F
S11301A045279A01ADECBCEC6AD096958795969557
S11301B08795969587959C01220F331F880F991F69
S11301C0880F991F880F991F820F931FFA01E81B4C
S11301D0F90BEC8380E090E019C0E1E0F0E0EC0F73
S11301E0FD1FE80FF91FE081F0E0EC5FFE4F208176
S11301F028BBFC01E050FF4F208120936500E3EF12
S1130200F1E03197F1F700C00000019684309105C8
S113021024F38FEF809365000F900F900F900F9051
S1130220DF91CF91089518BA8FEF809365000895F8
S11302308FEF87BB8093640082B911BA82BB13B875
S11302408093650018BA00E010E001C08C2FC0B3A1
S11302509C2F9095892359F080FD07C00F3087E2C9
S1130260180728F40F5F1F4F02C000E010E0C3B965
S1130270CF3F19F0C80120DFE9CFD5DFE7CFA29F38
S1130280B001B39FC001A39F700D811D1124911D66
S1130290B29F700D811D1124911D0895F894FFCF14
S11302A0070B0D0E3F065B4F666D7D077F6F777CF6
S10702B0395E7971C5
S9030000FC
