S00E000054696D6572352E73726563E0
S113000045C0000060C000005EC000005CC000008D
S11300105AC0000058C0000056C0000054C0000080
S113002052C0000050C000004EC000004CC0000090
S11300304AC0000048C0000046C00000C8C000001C
S113004091C0000040C000003EC000003CC0000061
S11300503AC0000038C0000036C0000034C00000C0
S113006032C0000030C000002EC000002CC00000D0
S11300702AC0000028C0000026C0000024C00000E0
S113008022C0000020C000001EC0000011241FBEBA
S1130090CFEFD0E1DEBFCDBF11E0A0E0B1E0E4ECF2
S11300A0F2E000E00BBF02C007900D92A231B1074D
S11300B0D9F721E0A2E1B1E001C01D92AA31B20753
S11300C0E1F7BAD0FDC09CCF6AE070E0D2D0AC01B9
S11300D020E030E01CC09BE095BBFB01FF27E05013
S11300E0FF4F90819BBB86E69EE00197F1F70000ED
S11300F097E095BBFA01FF27E050FF4F90819BBB2F
S113010086E69EE00197F1F700002F5F3F4F253010
S113011031050CF308956AE070E0ABD0AC0120E047
S113012030E01CC09EE095BBFB01FF27E050FF4F71
S113013090819BBB86E69EE00197F1F700009DE06D
S113014095BBFA01FF27E050FF4F90819BBB86E6E9
S11301509EE00197F1F700002F5F3F4F25303105F6
S11301600CF308951F920F920FB60F9211248F93E0
S11301709F93809118019091190101969093190110
S1130180809318018091180190911901C897C4F0C7
S11301901092190110921801809116019091170183
S11301A00196909317018093160180911601909106
S11301B017018436910524F010921701109216014C
S11301C09F918F910F900FBE0F901F9018951F92C3
S11301D00F920FB60F9211248F939F938091140165
S11301E090911501019690931501809314018091CB
S11301F01401909115014C97C4F0109215011092BE
S113020014018091120190911301019690931301AE
S1130210809312018091120190911301843691050B
S113022024F010921301109212019F918F910F905C
S11302300FBE0F901F9018959FEF9ABB8FE084BB61
S11302409BBB85BB80E187BB10BE8FE683BF83E089
S113025087BF12BE86E681BF16BE789480911201D4
S11302609091130158DF80911601909117012CDFB2
S1130270F5CF97FB072E16F4009406D077FD08D02F
S11302800BD007FC05D03EF4909581959F4F0895BF
S1130290709561957F4F0895AA1BBB1B51E107C060
S11302A0AA1FBB1FA617B70710F0A61BB70B881F02
S11302B0991F5A95A9F780959095BC01CD01089591
S10702C0F894FFCFDC
S11302C43F065B4F666D7C077F67777C395E797187
S10502D408809C
S9030000FC
