S00E000054696D6572322E73726563E3
S113000045C0000060C000005EC000005CC000008D
S11300105AC0000058C0000056C0000054C0000080
S113002052C0000050C000004EC000004CC0000090
S11300304AC0000048C0000046C0000044C00000A0
S113004091C0000040C000003EC000003CC0000061
S11300503AC0000038C0000036C0000034C00000C0
S113006032C0000030C000002EC000002CC00000D0
S11300702AC0000028C0000026C0000024C00000E0
S113008022C0000020C000001EC0000011241FBEBA
S1130090CFEFD0E1DEBFCDBF11E0A0E0B1E0EEE3F1
S11300A0F2E000E00BBF02C007900D92A231B1074D
S11300B0D9F721E0A2E1B1E001C01D92A631B20757
S11300C0E1F77FD0BAC09CCFCF9368EE73E08ED0B7
S11300D0C62F64E670E08AD0462F6AE070E086D0CE
S11300E020E030E03AC09EE095BBEC2FF0E0E05019
S11300F0FF4F90819BBBEFE9FFE03197F1F700C020
S113010000009DE095BBE42FF0E0E050FF4F9081AC
S11301109BBBEFE9FFE03197F1F700C000009BE0E3
S113012095BBE62FF0E0E050FF4F90819BBBEFE9D9
S1130130FFE03197F1F700C0000097E095BBE82F8E
S1130140F0E0E050FF4F90819BBBEFE9FFE0319777
S1130150F1F700C000002F5F3F4F223331051CF23E
S1130160CF9108951F920F920FB60F9211242F93DF
S11301708F939F9382EF82BF809114019091150118
S1130180019690931501809314018091140190912C
S11301901501883E93406CF01092150110921401E1
S11301A08091120190911301019690931301809311
S11301B012019F918F912F910F900FBE0F901F905E
S11301C018959FEF9ABB8FE084BB9BBB85BB10BE89
S11301D087E083BF81E087BF82EF82BF16BE789439
S11301E080911201909113016FDFFACF97FB072ED4
S11301F016F4009406D077FD08D00BD007FC05D088
S11302003EF4909581959F4F0895709561957F4F29
S11302100895AA1BBB1B51E107C0AA1FBB1FA61749
S1130220B70710F0A61BB70B881F991F5A95A9F79B
S111023080959095BC01CD010895F894FFCF00
S113023E3F065B4F666D7C077F67777C395E79710D
S105024E088022
S9030000FC
