S00E00005553415254322E7372656355
S113000045C0000058C0000056C0000054C00000A5
S113001052C0000050C000004EC000004CC00000A0
S11300204AC0000048C0000046C0000044C00000B0
S113003042C0000040C000003EC000003CC00000C0
S11300403AC0000038C0000036C0000034C00000D0
S113005032C0000030C000002EC000002CC00000E0
S11300602AC0000028C0000026C0000024C00000F0
S113007022C0000020C000001EC000001CC0000000
S11300801AC0000018C0000016C0000011241FBED2
S1130090CFEFD0E1DEBFCDBF11E0A0E0B1E0E8E1F9
S11300A0F1E000E00BBF02C007900D92A031B10750
S11300B0D9F720D02FC0A4CF88E18AB986E08093F5
S11300C095001092900087E089B908955D9BFECF5A
S11300D08CB908955F9BFECF8CB10895CF93DF93C5
S11300E0EC0102C02196F2DF88818111FBCFDF9100
S11300F0CF910895E1DF80E091E0F0DFEBDFE6DF10
S11301002FEF8FEF9CE2215080409040E1F700C038
S10B01100000F4CFF894FFCFC6
S113011848656C6C6F20776F726C64210D0A00005F
S9030000FC
