:1000000045C0000060C000005EC000005CC0000091
:100010005AC0000058C0000056C0000054C0000084
:1000200052C0000050C000004EC000004CC0000094
:100030004AC0000048C0000046C0000044C00000A4
:1000400042C0000040C000003EC000003CC00000B4
:100050003AC0000038C0000036C0000034C00000C4
:1000600032C0000030C000002EC000002CC00000D4
:100070002AC0000028C0000026C0000024C00000E4
:1000800022C0000020C000001EC0000011241FBEBE
:10009000CFEFD0E1DEBFCDBF11E0A0E0B1E0E4EFF3
:1000A000F1E000E00BBF02C007900D92A231B10752
:1000B000D9F721E0A2E1B1E001C01D92A431B2075D
:1000C000E1F75ED095C09CCF0F931F93CF93DF9342
:1000D00068EE73E066D08B0164E670E062D0EB01FD
:1000E0006AE070E05ED020E030E03AC04EE045BB10
:1000F000F801FF27E050FF4F40814BBBEFE9FFE0E5
:100100003197F1F700C000004DE045BBFE01FF272D
:10011000E050FF4F40814BBBEFE9FFE03197F1F733
:1001200000C000004BE045BBFB01FF27E050FF4F44
:1001300040814BBBEFE9FFE03197F1F700C00000D1
:1001400047E045BBFC01FF27E050FF4F40814BBB20
:10015000EFE9FFE03197F1F700C000002F5F3F4F5C
:100160002E3131051CF2DF91CF911F910F9108952F
:1001700086B1806486B93699FECF84B195B1089571
:100180008FEF8ABB1BBA8FE084BB85BB80E487B945
:1001900087E886B9EDDF909313018093120194DF15
:1001A000F9CF97FB072E16F4009406D077FD08D000
:1001B0000BD007FC05D03EF4909581959F4F089594
:1001C000709561957F4F0895AA1BBB1B51E107C035
:1001D000AA1FBB1FA617B70710F0A61BB70B881FD7
:1001E000991F5A95A9F780959095BC01CD01089566
:0401F000F894FFCFB1
:1001F4003F065B4F666D7C077F67777C395E79715C
:02020400088070
:00000001FF
