:1000000045C0000060C000005EC000005CC0000091
:100010005AC0000058C0000056C0000054C0000084
:1000200052C0000050C000004EC000004CC0000094
:100030004AC0000048C0000046C0000044C00000A4
:1000400042C0000040C000003EC000003CC00000B4
:100050003AC0000038C0000036C0000034C00000C4
:1000600032C0000030C000002EC000002CC00000D4
:100070002AC000007DC0000026C0000024C000008F
:1000800022C0000020C000001EC0000011241FBEBE
:10009000CFEFD0E1DEBFCDBF11E0A0E0B1E0E0E105
:1000A000F3E000E00BBF02C007900D92A232B1074F
:1000B000D9F721E0A2E2B1E001C01D92A732B20758
:1000C000E1F7D4D023C19CCF0F931F93CF93DF933D
:1000D00068EE73E0F4D08B0164E670E0F0D0EB01E1
:1000E0006AE070E0ECD020E030E03AC04EE045BB82
:1000F000F801FF27E050FF4F40814BBBEFE9FFE0E5
:100100003197F1F700C000004DE045BBFE01FF272D
:10011000E050FF4F40814BBBEFE9FFE03197F1F733
:1001200000C000004BE045BBFB01FF27E050FF4F44
:1001300040814BBBEFE9FFE03197F1F700C00000D1
:1001400047E045BBFC01FF27E050FF4F40814BBB20
:10015000EFE9FFE03197F1F700C000002F5F3F4F5C
:100160002E3131051CF2DF91CF911F910F9108952F
:100170001F920F920FB60F9211240BB60F922F936E
:100180008F939F93EF93FF9380EC94EF909389006C
:10019000809388008091250190912601019690938B
:1001A00026018093250180912501909126010597D4
:1001B0000CF450C010922601109225018091230169
:1001C00090912401019690932401809323018091C2
:1001D0002301909124018031974224F01092240150
:1001E00010922301809122018F5F8093220185303C
:1001F00010F0109222018091220190E0FC01EE0F9C
:10020000FF1F8E0F9F1FFC01EE5EFE4F80818ABD97
:100210008091220190E0FC01EE0FFF1F8E0F9F1FC7
:10022000FC01EE5EFE4F818188BD8091220190E04D
:10023000FC01EE0FFF1F8E0F9F1FFC01EE5EFE4FB5
:100240008281882324F488B3806888BB03C088B384
:100250008F7788BBFF91EF919F918F912F910F9096
:100260000BBE0F900FBE0F901F9018958FEF8ABB9B
:1002700084BB90EE97BB8BBB85BB18BA81EA8FBD60
:1002800082E08EBD10927A00E2E1F1E080818ABDC9
:10029000818188BD10928B0085E080938A0080EC7C
:1002A00094EF909389008093880084E080937D0090
:1002B0007894809123019091240106DFFACF97FB77
:1002C000072E16F4009406D077FD08D00BD007FC5B
:1002D00005D03EF4909581959F4F08957095619556
:1002E0007F4F0895AA1BBB1B51E107C0AA1FBB1F6C
:1002F000A617B70710F0A61BB70B881F991F5A95B2
:10030000A9F780959095BC01CD010895F894FFCF91
:100310003F065B4F666D7C077F67777C395E79713E
:100320000880A3BF40FF4500228B2287CEEB8000D0
:0203300080004B
:00000001FF
