:1000000045C0000060C000005EC000005CC0000091
:100010005AC0000058C0000056C0000054C0000084
:1000200052C00000A1C000004EC000004CC0000043
:100030004AC0000048C0000046C0000044C00000A4
:1000400042C0000040C000003EC000003CC00000B4
:100050003AC0000038C0000036C0000034C00000C4
:1000600032C0000030C000002EC000002CC00000D4
:100070002AC0000028C0000026C0000024C00000E4
:1000800022C0000020C000001EC0000011241FBEBE
:10009000CFEFD0E1DEBFCDBF11E0A0E0B1E0E2E5FF
:1000A000F2E000E00BBF02C007900D92A231B10751
:1000B000D9F721E0A2E1B1E001C01D92A631B2075B
:1000C000E1F78AD0C4C09CCF0F931F93CF93DF93E7
:1000D00068EE73E095D08B0164E670E091D0EB019F
:1000E0006AE070E08DD020E030E036C04EE045BBE5
:1000F000F801FF27E050FF4F40814BBBE6E6FEE0F2
:100100003197F1F700004DE045BBFE01FF27E050BD
:10011000FF4F40814BBBE6E6FEE03197F1F7000070
:100120004BE045BBFB01FF27E050FF4F40814BBB3D
:10013000E6E6FEE03197F1F7000047E045BBFC0141
:10014000FF27E050FF4F40814BBBE6E6FEE03197D2
:10015000F1F700002F5F3F4F2E3131053CF2DF9168
:10016000CF911F910F9108951F920F920FB60F928A
:1001700011242F938F939F938091140190911501D7
:100180000196909315018093140180911401909130
:10019000150184369105C4F01092150110921401D6
:1001A0008091120190911301019690931301809315
:1001B000120180911201909113018031974224F035
:1001C00010921301109212019F918F912F910F9015
:1001D0000FBE0F901F9018959FEF9ABB8FE084BBC6
:1001E0009BBB15BA85BD80E983BD14BC87B7806809
:1001F00087BF7894809112019091130165DFFACF47
:1002000097FB072E16F4009406D077FD08D00BD08C
:1002100007FC05D03EF4909581959F4F0895709509
:1002200061957F4F0895AA1BBB1B51E107C0AA1F10
:10023000BB1FA617B70710F0A61BB70B881F991F87
:100240005A95A9F780959095BC01CD010895F89431
:02025000FFCFDE
:100252003F065B4F666D7C077F67777C395E7971FD
:02026200088012
:00000001FF
