S01700004C45442D5365676D656E742D4344532E7372656331
S113000045C0000060C000005EC000005CC000008D
S11300105AC0000058C0000056C0000054C0000080
S113002052C0000050C000004EC000004CC0000090
S11300304AC0000048C0000046C0000044C00000A0
S113004042C0000040C000003EC000003CC00000B0
S11300503AC0000039C0000036C0000034C00000BF
S113006032C0000030C000002EC000002CC00000D0
S11300702AC0000028C0000026C0000024C00000E0
S113008022C0000020C000001EC0000011241FBEBA
S1130090CFEFD0E1DEBFCDBF11E0A0E0B1E0E4E0FE
S11300A0F2E000E00BBF02C007900D92A630B1074A
S11300B0D9F721E0A6E0B1E001C01D92AA30B20751
S11300C0E1F75AD09DC09CCF1F920F920FB60F92AA
S11300D011248F939F9384B195B1909309018093D8
S11300E0080186B1806486B99F918F910F900FBEED
S11300F00F901F9018958D3B22E0920710F08CEB27
S113010092E041E0489F9001499F300D381B112433
S1130110C9018C5B96446CEB72E05ED080E090E0A9
S113012050E04FEF10C0FC01E050FF4F2081261734
S113013018F4362F321B02C0322F361B341710F43A
S1130140522F432F0196863091056CF3509307018B
S113015008959091060180910701981720F483B1C6
S1130160816083B903C083B18E7F83B98091060116
S11301708F5F80930601089582B1816082B983B153
S11301808E7F83B9E1E6F0E08081877F8083E2E6B9
S1130190F0E08081877F808383E487B98FE886B924
S11301A085E38A95F1F70000789486B1806486B976
S11301B080910801909109019EDFC0E0D0E008C061
S11301C0C8DF8FE891E00197F1F700C000002196A5
S11301D0C233D105ACF3ECCFAA1BBB1B51E107C062
S11301E0AA1FBB1FA617B70710F0A61BB70B881FC3
S11301F0991F5A95A9F780959095BC01CD01089552
S1070200F894FFCF9C
S109020400336699CCFFF3
S9030000FC
