S00B00004344532E737265633F
S113000045C0000060C000005EC000005CC000008D
S11300105AC0000058C0000056C0000054C0000080
S113002052C0000050C000004EC000004CC0000090
S11300304AC0000048C0000046C0000044C00000A0
S113004042C0000040C000003EC000003CC00000B0
S11300503AC000009EC0000036C0000034C000005A
S113006032C0000030C000002EC000002CC00000D0
S11300702AC0000028C0000026C0000024C00000E0
S113008022C0000020C000001EC0000011241FBEBA
S1130090CFEFD0E1DEBFCDBF11E0A0E0B1E0E2E9F7
S11300A0F2E000E00BBF02C007900D92A231B1074D
S11300B0D9F721E0A2E1B1E001C01D92A431B20759
S11300C0E1F77ED0E4C09CCFEF92FF920F931F9391
S11300D0CF93DF93FC0168EE73E0B2D08B0124E68A
S11300E030E0B901ADD0EB01CF01B901A9D00F2E99
S11300F0FAE0EF2EF12CF02DB701A2D09B01CF0135
S1130100B7019ED040E050E03AC06EE065BBF80114
S1130110FF27E050FF4F60816BBBEFE1FEE43197B6
S1130120F1F700C000006DE065BBFE01FF27E05061
S1130130FF4F60816BBBEFE1FEE43197F1F700C044
S113014000006BE065BBF901FF27E050FF4F6081C1
S11301506BBBEFE1FEE43197F1F700C0000067E00C
S113016065BBFC01FF27E050FF4F60816BBBEFE1F3
S1130170FEE43197F1F700C000004F5F5F4F403558
S113018051051CF2DF91CF911F910F91FF90EF90D9
S113019008951F920F920FB60F9211248F939F937D
S11301A084B195B1909313018093120186B1806458
S11301B086B99F918F910F900FBE0F901F90189545
S11301C08FEF8ABB8FE084BB1BBA85BB87B381608A
S11301D087BB88B38E7F88BBE1E6F0E08081877FB0
S11301E08083E2E6F0E08081877F808383E487B9BF
S11301F08FE886B925E32A95F1F70000789486B153
S1130200806486B980911201909113015DDF88B3F7
S1130210816088BB8FEF93E224EF815090402040AF
S1130220E1F700C0000088B38E7F88BB8FEF93EDA9
S113023020E3815090402040E1F700C00000E2CF6D
S113024097FB072E16F4009406D077FD08D00BD048
S113025007FC05D03EF4909581959F4F08957095C5
S113026061957F4F0895AA1BBB1B51E107C0AA1FCC
S1130270BB1FA617B70710F0A61BB70B881F991F43
S11302805A95A9F780959095BC01CD010895F894ED
S1050290FFCF9A
S11302923F065B4F666D7C077F67777C395E7971B9
S10502A20880CE
S9030000FC
