:1000000045C0000060C000005EC000005CC0000091
:100010005AC0000058C0000056C0000054C0000084
:1000200052C0000050C000004EC000004CC0000094
:100030004AC0000048C0000046C0000044C00000A4
:1000400042C0000040C000003EC000003CC00000B4
:100050003AC000008DC0000036C0000034C000006F
:1000600032C0000030C000002EC000002CC00000D4
:100070002AC0000028C0000026C0000024C00000E4
:1000800022C0000020C000001EC0000011241FBEBE
:10009000CFEFD0E1DEBFCDBF11E0A0E0B1E0EEEAEE
:1000A000F2E000E00BBF02C007900D92A231B10751
:1000B000D9F721E0A2E1B1E001C01D92A431B2075D
:1000C000E1F794D0F2C09CCF0F931F93CF93DF93AF
:1000D00068EE73E0B4D08B0164E670E0B0D0EB0161
:1000E0006AE070E0ACD020E030E03AC04EE045BBC2
:1000F000F801FF27E050FF4F40814BBBEFE9FFE0E5
:100100003197F1F700C000004DE045BBFE01FF272D
:10011000E050FF4F40814BBBEFE9FFE03197F1F733
:1001200000C000004BE045BBFB01FF27E050FF4F44
:1001300040814BBBEFE9FFE03197F1F700C00000D1
:1001400047E045BBFC01FF27E050FF4F40814BBB20
:10015000EFE9FFE03197F1F700C000002F5F3F4F5C
:100160002E3131051CF2DF91CF911F910F9108952F
:100170001F920F920FB60F9211248F939F9384B109
:1001800095B1909313018093120186B1806486B972
:100190009F918F910F900FBE0F901F9018958135F2
:1001A000910518F48FEF83B908958A3822E09207F9
:1001B00010F013B80895805591099C01220F331F48
:1001C000220F331F220F331FADE7B9E34BD09C0141
:1001D000220F232F221F330B31958FEF90E002C0A7
:1001E000880F991F2A95E2F783B908958FEF8ABB8C
:1001F0009FE094BB1BBA95BB82B913B8E1E6F0E06F
:100200008081877F8083E2E6F0E08081877F808342
:1002100083E487B98FE886B985E38A95F1F7000012
:10022000789486B1806486B980911201909113010F
:100230004BDF8091120190911301B1DFF5CF97FB55
:10024000072E16F4009406D077FD08D01AD007FCCC
:1002500005D03EF4909581959F4F089570956195D6
:100260007F4F0895A29FB001B39FC001A39F700D5F
:10027000811D1124911DB29F700D811D1124911DAE
:100280000895AA1BBB1B51E107C0AA1FBB1FA617DD
:10029000B70710F0A61BB70B881F991F5A95A9F72F
:0E02A00080959095BC01CD010895F894FFCF94
:1002AE003F065B4F666D7C077F67777C395E7971A1
:0202BE000880B6
:00000001FF
